{
  "_format": "hh-sol-artifact-1",
  "contractName": "camp_chain",
  "sourceName": "contracts/camp_chain.sol",
  "abi": [
    {
      "inputs": [],
      "stateMutability": "nonpayable",
      "type": "constructor"
    },
    {
      "inputs": [
        {
          "internalType": "address",
          "name": "",
          "type": "address"
        }
      ],
      "name": "academicStaff",
      "outputs": [
        {
          "internalType": "uint256",
          "name": "staffID",
          "type": "uint256"
        },
        {
          "internalType": "string",
          "name": "name",
          "type": "string"
        },
        {
          "internalType": "string",
          "name": "email",
          "type": "string"
        },
        {
          "internalType": "string",
          "name": "field",
          "type": "string"
        },
        {
          "internalType": "address",
          "name": "staffMetaAddress",
          "type": "address"
        },
        {
          "internalType": "uint256",
          "name": "points",
          "type": "uint256"
        },
        {
          "internalType": "bool",
          "name": "isVal",
          "type": "bool"
        },
        {
          "internalType": "string",
          "name": "password",
          "type": "string"
        }
      ],
      "stateMutability": "view",
      "type": "function"
    },
    {
      "inputs": [
        {
          "internalType": "string",
          "name": "_body",
          "type": "string"
        },
        {
          "internalType": "uint256",
          "name": "_questionID",
          "type": "uint256"
        }
      ],
      "name": "addAnswer",
      "outputs": [],
      "stateMutability": "nonpayable",
      "type": "function"
    },
    {
      "inputs": [
        {
          "internalType": "string",
          "name": "_title",
          "type": "string"
        },
        {
          "internalType": "string",
          "name": "_body",
          "type": "string"
        }
      ],
      "name": "addQuestion",
      "outputs": [],
      "stateMutability": "nonpayable",
      "type": "function"
    },
    {
      "inputs": [
        {
          "internalType": "uint256",
          "name": "_staffID",
          "type": "uint256"
        },
        {
          "internalType": "string",
          "name": "_name",
          "type": "string"
        },
        {
          "internalType": "string",
          "name": "_email",
          "type": "string"
        },
        {
          "internalType": "address",
          "name": "_staffMetaAddress",
          "type": "address"
        },
        {
          "internalType": "string",
          "name": "_field",
          "type": "string"
        }
      ],
      "name": "addStaff",
      "outputs": [
        {
          "internalType": "uint256",
          "name": "",
          "type": "uint256"
        }
      ],
      "stateMutability": "nonpayable",
      "type": "function"
    },
    {
      "inputs": [
        {
          "internalType": "uint256",
          "name": "_studID",
          "type": "uint256"
        },
        {
          "internalType": "string",
          "name": "_username",
          "type": "string"
        },
        {
          "internalType": "uint256",
          "name": "_year",
          "type": "uint256"
        },
        {
          "internalType": "string",
          "name": "_email",
          "type": "string"
        },
        {
          "internalType": "address",
          "name": "_metaAddress",
          "type": "address"
        },
        {
          "internalType": "string",
          "name": "_department",
          "type": "string"
        },
        {
          "internalType": "uint256",
          "name": "_points",
          "type": "uint256"
        },
        {
          "internalType": "string",
          "name": "_pass",
          "type": "string"
        }
      ],
      "name": "addStudent",
      "outputs": [
        {
          "internalType": "uint256",
          "name": "",
          "type": "uint256"
        }
      ],
      "stateMutability": "nonpayable",
      "type": "function"
    },
    {
      "inputs": [],
      "name": "answerID",
      "outputs": [
        {
          "internalType": "uint256",
          "name": "",
          "type": "uint256"
        }
      ],
      "stateMutability": "view",
      "type": "function"
    },
    {
      "inputs": [
        {
          "internalType": "uint256",
          "name": "",
          "type": "uint256"
        }
      ],
      "name": "answers",
      "outputs": [
        {
          "internalType": "uint256",
          "name": "answerID",
          "type": "uint256"
        },
        {
          "internalType": "address",
          "name": "owner",
          "type": "address"
        },
        {
          "internalType": "string",
          "name": "body",
          "type": "string"
        },
        {
          "internalType": "bool",
          "name": "verified",
          "type": "bool"
        },
        {
          "internalType": "uint256",
          "name": "voteA",
          "type": "uint256"
        },
        {
          "internalType": "uint256",
          "name": "answerDate",
          "type": "uint256"
        }
      ],
      "stateMutability": "view",
      "type": "function"
    },
    {
      "inputs": [
        {
          "internalType": "address",
          "name": "",
          "type": "address"
        }
      ],
      "name": "balance",
      "outputs": [
        {
          "internalType": "uint256",
          "name": "",
          "type": "uint256"
        }
      ],
      "stateMutability": "view",
      "type": "function"
    },
    {
      "inputs": [
        {
          "internalType": "uint256",
          "name": "_id",
          "type": "uint256"
        }
      ],
      "name": "getAnswer",
      "outputs": [
        {
          "components": [
            {
              "internalType": "uint256",
              "name": "answerID",
              "type": "uint256"
            },
            {
              "internalType": "address",
              "name": "owner",
              "type": "address"
            },
            {
              "internalType": "string",
              "name": "body",
              "type": "string"
            },
            {
              "internalType": "bool",
              "name": "verified",
              "type": "bool"
            },
            {
              "internalType": "uint256",
              "name": "voteA",
              "type": "uint256"
            },
            {
              "internalType": "uint256",
              "name": "answerDate",
              "type": "uint256"
            }
          ],
          "internalType": "struct camp_chain.Answer",
          "name": "",
          "type": "tuple"
        }
      ],
      "stateMutability": "view",
      "type": "function"
    },
    {
      "inputs": [],
      "name": "getCount",
      "outputs": [
        {
          "internalType": "uint256",
          "name": "",
          "type": "uint256"
        }
      ],
      "stateMutability": "view",
      "type": "function"
    },
    {
      "inputs": [
        {
          "internalType": "uint256",
          "name": "_id",
          "type": "uint256"
        }
      ],
      "name": "getQuestion",
      "outputs": [
        {
          "components": [
            {
              "internalType": "uint256",
              "name": "questionID",
              "type": "uint256"
            },
            {
              "internalType": "address",
              "name": "asker",
              "type": "address"
            },
            {
              "internalType": "string",
              "name": "title",
              "type": "string"
            },
            {
              "internalType": "string",
              "name": "body",
              "type": "string"
            },
            {
              "internalType": "bool",
              "name": "answered",
              "type": "bool"
            },
            {
              "internalType": "uint256[]",
              "name": "answers",
              "type": "uint256[]"
            },
            {
              "internalType": "uint256",
              "name": "voteQ",
              "type": "uint256"
            },
            {
              "internalType": "uint256",
              "name": "questionDate",
              "type": "uint256"
            }
          ],
          "internalType": "struct camp_chain.Question",
          "name": "",
          "type": "tuple"
        }
      ],
      "stateMutability": "view",
      "type": "function"
    },
    {
      "inputs": [
        {
          "internalType": "address",
          "name": "_metaAddress",
          "type": "address"
        }
      ],
      "name": "getUserQuestion",
      "outputs": [
        {
          "components": [
            {
              "internalType": "uint256",
              "name": "questionID",
              "type": "uint256"
            },
            {
              "internalType": "address",
              "name": "asker",
              "type": "address"
            },
            {
              "internalType": "string",
              "name": "title",
              "type": "string"
            },
            {
              "internalType": "string",
              "name": "body",
              "type": "string"
            },
            {
              "internalType": "bool",
              "name": "answered",
              "type": "bool"
            },
            {
              "internalType": "uint256[]",
              "name": "answers",
              "type": "uint256[]"
            },
            {
              "internalType": "uint256",
              "name": "voteQ",
              "type": "uint256"
            },
            {
              "internalType": "uint256",
              "name": "questionDate",
              "type": "uint256"
            }
          ],
          "internalType": "struct camp_chain.Question[]",
          "name": "",
          "type": "tuple[]"
        }
      ],
      "stateMutability": "view",
      "type": "function"
    },
    {
      "inputs": [],
      "name": "owner",
      "outputs": [
        {
          "internalType": "address payable",
          "name": "",
          "type": "address"
        }
      ],
      "stateMutability": "view",
      "type": "function"
    },
    {
      "inputs": [],
      "name": "questionCount",
      "outputs": [
        {
          "internalType": "uint256",
          "name": "",
          "type": "uint256"
        }
      ],
      "stateMutability": "view",
      "type": "function"
    },
    {
      "inputs": [
        {
          "internalType": "uint256",
          "name": "",
          "type": "uint256"
        }
      ],
      "name": "questions",
      "outputs": [
        {
          "internalType": "uint256",
          "name": "questionID",
          "type": "uint256"
        },
        {
          "internalType": "address",
          "name": "asker",
          "type": "address"
        },
        {
          "internalType": "string",
          "name": "title",
          "type": "string"
        },
        {
          "internalType": "string",
          "name": "body",
          "type": "string"
        },
        {
          "internalType": "bool",
          "name": "answered",
          "type": "bool"
        },
        {
          "internalType": "uint256",
          "name": "voteQ",
          "type": "uint256"
        },
        {
          "internalType": "uint256",
          "name": "questionDate",
          "type": "uint256"
        }
      ],
      "stateMutability": "view",
      "type": "function"
    },
    {
      "inputs": [
        {
          "internalType": "address",
          "name": "",
          "type": "address"
        },
        {
          "internalType": "uint256",
          "name": "",
          "type": "uint256"
        }
      ],
      "name": "staffAnswers",
      "outputs": [
        {
          "internalType": "uint256",
          "name": "",
          "type": "uint256"
        }
      ],
      "stateMutability": "view",
      "type": "function"
    },
    {
      "inputs": [],
      "name": "staffNum",
      "outputs": [
        {
          "internalType": "uint256",
          "name": "",
          "type": "uint256"
        }
      ],
      "stateMutability": "view",
      "type": "function"
    },
    {
      "inputs": [
        {
          "internalType": "address",
          "name": "",
          "type": "address"
        },
        {
          "internalType": "uint256",
          "name": "",
          "type": "uint256"
        }
      ],
      "name": "staffQuestions",
      "outputs": [
        {
          "internalType": "uint256",
          "name": "",
          "type": "uint256"
        }
      ],
      "stateMutability": "view",
      "type": "function"
    },
    {
      "inputs": [
        {
          "internalType": "address",
          "name": "",
          "type": "address"
        },
        {
          "internalType": "uint256",
          "name": "",
          "type": "uint256"
        }
      ],
      "name": "studentAnswers",
      "outputs": [
        {
          "internalType": "uint256",
          "name": "",
          "type": "uint256"
        }
      ],
      "stateMutability": "view",
      "type": "function"
    },
    {
      "inputs": [
        {
          "internalType": "address",
          "name": "",
          "type": "address"
        },
        {
          "internalType": "uint256",
          "name": "",
          "type": "uint256"
        }
      ],
      "name": "studentQuestions",
      "outputs": [
        {
          "internalType": "uint256",
          "name": "",
          "type": "uint256"
        }
      ],
      "stateMutability": "view",
      "type": "function"
    },
    {
      "inputs": [
        {
          "internalType": "address",
          "name": "",
          "type": "address"
        }
      ],
      "name": "students",
      "outputs": [
        {
          "internalType": "uint256",
          "name": "studID",
          "type": "uint256"
        },
        {
          "internalType": "string",
          "name": "username",
          "type": "string"
        },
        {
          "internalType": "uint256",
          "name": "year",
          "type": "uint256"
        },
        {
          "internalType": "string",
          "name": "email",
          "type": "string"
        },
        {
          "internalType": "address",
          "name": "metaAddress",
          "type": "address"
        },
        {
          "internalType": "string",
          "name": "department",
          "type": "string"
        },
        {
          "internalType": "uint256",
          "name": "points",
          "type": "uint256"
        },
        {
          "internalType": "string",
          "name": "password",
          "type": "string"
        }
      ],
      "stateMutability": "view",
      "type": "function"
    },
    {
      "inputs": [],
      "name": "studentsNum",
      "outputs": [
        {
          "internalType": "uint256",
          "name": "",
          "type": "uint256"
        }
      ],
      "stateMutability": "view",
      "type": "function"
    },
    {
      "inputs": [
        {
          "internalType": "uint256",
          "name": "_answerID",
          "type": "uint256"
        },
        {
          "internalType": "uint256",
          "name": "_p",
          "type": "uint256"
        }
      ],
      "name": "voteA",
      "outputs": [],
      "stateMutability": "nonpayable",
      "type": "function"
    },
    {
      "inputs": [
        {
          "internalType": "uint256",
          "name": "_questionID",
          "type": "uint256"
        },
        {
          "internalType": "uint256",
          "name": "_p",
          "type": "uint256"
        }
      ],
      "name": "voteQ",
      "outputs": [],
      "stateMutability": "nonpayable",
      "type": "function"
    }
  ],
  "bytecode": "0x6080604052600060025560006003556000600455600060055534801561002457600080fd5b50336000806101000a81548173ffffffffffffffffffffffffffffffffffffffff021916908373ffffffffffffffffffffffffffffffffffffffff16021790555073e596e16b19ce685e6fc0a9e2291e66fd1fda3819600160006101000a81548173ffffffffffffffffffffffffffffffffffffffff021916908373ffffffffffffffffffffffffffffffffffffffff1602179055506135cd806100c96000396000f3fe608060405234801561001057600080fd5b50600436106101585760003560e01c8063a5f6f847116100c3578063d0f98c471161007c578063d0f98c4714610427578063d69a614c14610443578063db88176f14610473578063e3d670d7146104a3578063f2111083146104d3578063f4bcdadf1461050357610158565b8063a5f6f84714610338578063a6c807a914610354578063a87d942c1461038b578063b5ab58dc146103a9578063b7328444146103d9578063c32833fb146103f757610158565b80637291ae3e116101155780637291ae3e1461026257806385e93dff146102925780638da5cb5b146102b0578063964cd984146102ce578063a0ec18eb146102ec578063a13f76181461030857610158565b80631468aa2c1461015d57806317599cc51461017b57806331b1b978146101b057806333d4020c146101e6578063361131501461020257806348768a9514610232575b600080fd5b61016561053a565b6040516101729190612416565b60405180910390f35b61019560048036038101906101909190612471565b610540565b6040516101a79695949392919061258a565b60405180910390f35b6101ca60048036038101906101c59190612471565b610631565b6040516101dd97969594939291906125f2565b60405180910390f35b61020060048036038101906101fb91906127a4565b6107b0565b005b61021c6004803603810190610217919061282c565b610a6a565b6040516102299190612416565b60405180910390f35b61024c60048036038101906102479190612952565b610be4565b6040516102599190612416565b60405180910390f35b61027c60048036038101906102779190612a21565b610cee565b6040516102899190612416565b60405180910390f35b61029a610d1f565b6040516102a79190612416565b60405180910390f35b6102b8610d25565b6040516102c59190612a82565b60405180910390f35b6102d6610d49565b6040516102e39190612416565b60405180910390f35b61030660048036038101906103019190612a9d565b610d4f565b005b610322600480360381019061031d9190612b15565b611053565b60405161032f9190612de8565b60405180910390f35b610352600480360381019061034d9190612e0a565b6113cc565b005b61036e60048036038101906103699190612b15565b61169a565b604051610382989796959493929190612e4a565b60405180910390f35b610393611922565b6040516103a09190612416565b60405180910390f35b6103c360048036038101906103be9190612471565b61192c565b6040516103d09190612f6d565b60405180910390f35b6103e1611a7a565b6040516103ee9190612416565b60405180910390f35b610411600480360381019061040c9190612a21565b611a80565b60405161041e9190612416565b60405180910390f35b610441600480360381019061043c9190612e0a565b611ab1565b005b61045d60048036038101906104589190612a21565b611da0565b60405161046a9190612416565b60405180910390f35b61048d60048036038101906104889190612471565b611dd1565b60405161049a919061304d565b60405180910390f35b6104bd60048036038101906104b89190612b15565b61200a565b6040516104ca9190612416565b60405180910390f35b6104ed60048036038101906104e89190612a21565b612022565b6040516104fa9190612416565b60405180910390f35b61051d60048036038101906105189190612b15565b612053565b60405161053198979695949392919061306f565b60405180910390f35b60045481565b60096020528060005260406000206000915090508060000154908060010160009054906101000a900473ffffffffffffffffffffffffffffffffffffffff169080600201805461058f90613138565b80601f01602080910402602001604051908101604052809291908181526020018280546105bb90613138565b80156106085780601f106105dd57610100808354040283529160200191610608565b820191906000526020600020905b8154815290600101906020018083116105eb57829003601f168201915b5050505050908060030160009054906101000a900460ff16908060040154908060050154905086565b60086020528060005260406000206000915090508060000154908060010160009054906101000a900473ffffffffffffffffffffffffffffffffffffffff169080600201805461068090613138565b80601f01602080910402602001604051908101604052809291908181526020018280546106ac90613138565b80156106f95780601f106106ce576101008083540402835291602001916106f9565b820191906000526020600020905b8154815290600101906020018083116106dc57829003601f168201915b50505050509080600301805461070e90613138565b80601f016020809104026020016040519081016040528092919081815260200182805461073a90613138565b80156107875780601f1061075c57610100808354040283529160200191610787565b820191906000526020600020905b81548152906001019060200180831161076a57829003601f168201915b5050505050908060040160009054906101000a900460ff16908060060154908060070154905087565b600560008154809291906107c390613198565b91905055506040518060c0016040528060055481526020013373ffffffffffffffffffffffffffffffffffffffff16815260200183815260200160001515815260200160008152602001428152506009600060055481526020019081526020016000206000820151816000015560208201518160010160006101000a81548173ffffffffffffffffffffffffffffffffffffffff021916908373ffffffffffffffffffffffffffffffffffffffff160217905550604082015181600201908161088c919061338c565b5060608201518160030160006101000a81548160ff0219169083151502179055506080820151816004015560a082015181600501559050506006600060096000600554815260200190815260200160002060010160009054906101000a900473ffffffffffffffffffffffffffffffffffffffff1673ffffffffffffffffffffffffffffffffffffffff1673ffffffffffffffffffffffffffffffffffffffff16815260200190815260200160002060060160009054906101000a900460ff16156109be57600d60003373ffffffffffffffffffffffffffffffffffffffff1673ffffffffffffffffffffffffffffffffffffffff1681526020019081526020016000206005549080600181540180825580915050600190039060005260206000200160009091909190915055610a27565b600b60003373ffffffffffffffffffffffffffffffffffffffff1673ffffffffffffffffffffffffffffffffffffffff16815260200190815260200160002060055490806001815401808255809150506001900390600052602060002001600090919091909150555b6008600082815260200190815260200160002060050160055490806001815401808255809150506001900390600052602060002001600090919091909150555050565b60006040518061010001604052808a81526020018981526020018881526020018781526020018673ffffffffffffffffffffffffffffffffffffffff16815260200185815260200184815260200183815250600760003373ffffffffffffffffffffffffffffffffffffffff1673ffffffffffffffffffffffffffffffffffffffff168152602001908152602001600020600082015181600001556020820151816001019081610b1a919061338c565b50604082015181600201556060820151816003019081610b3a919061338c565b5060808201518160040160006101000a81548173ffffffffffffffffffffffffffffffffffffffff021916908373ffffffffffffffffffffffffffffffffffffffff16021790555060a0820151816005019081610b97919061338c565b5060c0820151816006015560e0820151816007019081610bb7919061338c565b5090505060026000815480929190610bce90613198565b9190505550600254905098975050505050505050565b600080600660008573ffffffffffffffffffffffffffffffffffffffff1673ffffffffffffffffffffffffffffffffffffffff168152602001908152602001600020905086816000018190555085816001019081610c42919061338c565b5084816002019081610c54919061338c565b50838160040160006101000a81548173ffffffffffffffffffffffffffffffffffffffff021916908373ffffffffffffffffffffffffffffffffffffffff16021790555082816003019081610ca9919061338c565b5060036000815480929190610cbd90613198565b919050555060018160060160006101000a81548160ff02191690831515021790555060035491505095945050505050565b600a6020528160005260406000208181548110610d0a57600080fd5b90600052602060002001600091509150505481565b60035481565b60008054906101000a900473ffffffffffffffffffffffffffffffffffffffff1681565b60025481565b60046000815480929190610d6290613198565b919050555060405180610100016040528060045481526020013373ffffffffffffffffffffffffffffffffffffffff168152602001838152602001828152602001600015158152602001600067ffffffffffffffff811115610dc757610dc6612679565b5b604051908082528060200260200182016040528015610df55781602001602082028036833780820191505090505b50815260200160008152602001428152506008600060045481526020019081526020016000206000820151816000015560208201518160010160006101000a81548173ffffffffffffffffffffffffffffffffffffffff021916908373ffffffffffffffffffffffffffffffffffffffff1602179055506040820151816002019081610e81919061338c565b506060820151816003019081610e97919061338c565b5060808201518160040160006101000a81548160ff02191690831515021790555060a0820151816005019080519060200190610ed49291906122e8565b5060c0820151816006015560e082015181600701559050506006600060086000600454815260200190815260200160002060010160009054906101000a900473ffffffffffffffffffffffffffffffffffffffff1673ffffffffffffffffffffffffffffffffffffffff1673ffffffffffffffffffffffffffffffffffffffff16815260200190815260200160002060060160009054906101000a900460ff1615610fe657600c60003373ffffffffffffffffffffffffffffffffffffffff1673ffffffffffffffffffffffffffffffffffffffff168152602001908152602001600020600454908060018154018082558091505060019003906000526020600020016000909190919091505561104f565b600a60003373ffffffffffffffffffffffffffffffffffffffff1673ffffffffffffffffffffffffffffffffffffffff16815260200190815260200160002060045490806001815401808255809150506001900390600052602060002001600090919091909150555b5050565b60606000600a60008473ffffffffffffffffffffffffffffffffffffffff1673ffffffffffffffffffffffffffffffffffffffff1681526020019081526020016000208054806020026020016040519081016040528092919081815260200182805480156110e057602002820191906000526020600020905b8154815260200190600101908083116110cc575b505050505090506000815167ffffffffffffffff81111561110457611103612679565b5b60405190808252806020026020018201604052801561113d57816020015b61112a612335565b8152602001906001900390816111225790505b50905060005b82518110156113c157600860008483815181106111635761116261345e565b5b6020026020010151815260200190815260200160002060405180610100016040529081600082015481526020016001820160009054906101000a900473ffffffffffffffffffffffffffffffffffffffff1673ffffffffffffffffffffffffffffffffffffffff1673ffffffffffffffffffffffffffffffffffffffff1681526020016002820180546111f590613138565b80601f016020809104026020016040519081016040528092919081815260200182805461122190613138565b801561126e5780601f106112435761010080835404028352916020019161126e565b820191906000526020600020905b81548152906001019060200180831161125157829003601f168201915b5050505050815260200160038201805461128790613138565b80601f01602080910402602001604051908101604052809291908181526020018280546112b390613138565b80156113005780601f106112d557610100808354040283529160200191611300565b820191906000526020600020905b8154815290600101906020018083116112e357829003601f168201915b505050505081526020016004820160009054906101000a900460ff161515151581526020016005820180548060200260200160405190810160405280929190818152602001828054801561137357602002820191906000526020600020905b81548152602001906001019080831161135f575b50505050508152602001600682015481526020016007820154815250508282815181106113a3576113a261345e565b5b602002602001018190525080806113b990613198565b915050611143565b508092505050919050565b600081036114075760016008600084815260200190815260200160002060060160008282546113fb919061348d565b92505081905550611436565b600160086000848152602001908152602001600020600601600082825461142e91906134c1565b925050819055505b600062278d0060086000858152602001908152602001600020600701544261145e919061348d565b6114689190613524565b6001611474919061348d565b8261147f9190613555565b9050600660003373ffffffffffffffffffffffffffffffffffffffff1673ffffffffffffffffffffffffffffffffffffffff16815260200190815260200160002060060160009054906101000a900460ff16156114e6576003816114e39190613555565b90505b600660006008600086815260200190815260200160002060010160009054906101000a900473ffffffffffffffffffffffffffffffffffffffff1673ffffffffffffffffffffffffffffffffffffffff1673ffffffffffffffffffffffffffffffffffffffff16815260200190815260200160002060060160009054906101000a900460ff16156116055780600660006008600087815260200190815260200160002060010160009054906101000a900473ffffffffffffffffffffffffffffffffffffffff1673ffffffffffffffffffffffffffffffffffffffff1673ffffffffffffffffffffffffffffffffffffffff16815260200190815260200160002060050160008282546115f991906134c1565b92505081905550611695565b80600760006008600087815260200190815260200160002060010160009054906101000a900473ffffffffffffffffffffffffffffffffffffffff1673ffffffffffffffffffffffffffffffffffffffff1673ffffffffffffffffffffffffffffffffffffffff168152602001908152602001600020600601600082825461168d91906134c1565b925050819055505b505050565b60076020528060005260406000206000915090508060000154908060010180546116c390613138565b80601f01602080910402602001604051908101604052809291908181526020018280546116ef90613138565b801561173c5780601f106117115761010080835404028352916020019161173c565b820191906000526020600020905b81548152906001019060200180831161171f57829003601f168201915b50505050509080600201549080600301805461175790613138565b80601f016020809104026020016040519081016040528092919081815260200182805461178390613138565b80156117d05780601f106117a5576101008083540402835291602001916117d0565b820191906000526020600020905b8154815290600101906020018083116117b357829003601f168201915b5050505050908060040160009054906101000a900473ffffffffffffffffffffffffffffffffffffffff169080600501805461180b90613138565b80601f016020809104026020016040519081016040528092919081815260200182805461183790613138565b80156118845780601f1061185957610100808354040283529160200191611884565b820191906000526020600020905b81548152906001019060200180831161186757829003601f168201915b50505050509080600601549080600701805461189f90613138565b80601f01602080910402602001604051908101604052809291908181526020018280546118cb90613138565b80156119185780601f106118ed57610100808354040283529160200191611918565b820191906000526020600020905b8154815290600101906020018083116118fb57829003601f168201915b5050505050905088565b6000600454905090565b611934612392565b600960008381526020019081526020016000206040518060c0016040529081600082015481526020016001820160009054906101000a900473ffffffffffffffffffffffffffffffffffffffff1673ffffffffffffffffffffffffffffffffffffffff1673ffffffffffffffffffffffffffffffffffffffff1681526020016002820180546119c290613138565b80601f01602080910402602001604051908101604052809291908181526020018280546119ee90613138565b8015611a3b5780601f10611a1057610100808354040283529160200191611a3b565b820191906000526020600020905b815481529060010190602001808311611a1e57829003601f168201915b505050505081526020016003820160009054906101000a900460ff16151515158152602001600482015481526020016005820154815250509050919050565b60055481565b600b6020528160005260406000208181548110611a9c57600080fd5b90600052602060002001600091509150505481565b60008103611aec576001600960008481526020019081526020016000206004016000828254611ae0919061348d565b92505081905550611b1b565b6001600960008481526020019081526020016000206004016000828254611b1391906134c1565b925050819055505b600062278d00600960008581526020019081526020016000206005015442611b43919061348d565b611b4d9190613524565b6001611b59919061348d565b82611b649190613555565b9050600960008481526020019081526020016000206004016000815480929190611b8d90613198565b9190505550600660003373ffffffffffffffffffffffffffffffffffffffff1673ffffffffffffffffffffffffffffffffffffffff16815260200190815260200160002060060160009054906101000a900460ff1615611bec57600390505b600660006009600086815260200190815260200160002060010160009054906101000a900473ffffffffffffffffffffffffffffffffffffffff1673ffffffffffffffffffffffffffffffffffffffff1673ffffffffffffffffffffffffffffffffffffffff16815260200190815260200160002060060160009054906101000a900460ff1615611d0b5780600660006009600087815260200190815260200160002060010160009054906101000a900473ffffffffffffffffffffffffffffffffffffffff1673ffffffffffffffffffffffffffffffffffffffff1673ffffffffffffffffffffffffffffffffffffffff1681526020019081526020016000206005016000828254611cff91906134c1565b92505081905550611d9b565b80600760006009600087815260200190815260200160002060010160009054906101000a900473ffffffffffffffffffffffffffffffffffffffff1673ffffffffffffffffffffffffffffffffffffffff1673ffffffffffffffffffffffffffffffffffffffff1681526020019081526020016000206006016000828254611d9391906134c1565b925050819055505b505050565b600d6020528160005260406000208181548110611dbc57600080fd5b90600052602060002001600091509150505481565b611dd9612335565b6008600083815260200190815260200160002060405180610100016040529081600082015481526020016001820160009054906101000a900473ffffffffffffffffffffffffffffffffffffffff1673ffffffffffffffffffffffffffffffffffffffff1673ffffffffffffffffffffffffffffffffffffffff168152602001600282018054611e6890613138565b80601f0160208091040260200160405190810160405280929190818152602001828054611e9490613138565b8015611ee15780601f10611eb657610100808354040283529160200191611ee1565b820191906000526020600020905b815481529060010190602001808311611ec457829003601f168201915b50505050508152602001600382018054611efa90613138565b80601f0160208091040260200160405190810160405280929190818152602001828054611f2690613138565b8015611f735780601f10611f4857610100808354040283529160200191611f73565b820191906000526020600020905b815481529060010190602001808311611f5657829003601f168201915b505050505081526020016004820160009054906101000a900460ff1615151515815260200160058201805480602002602001604051908101604052809291908181526020018280548015611fe657602002820191906000526020600020905b815481526020019060010190808311611fd2575b50505050508152602001600682015481526020016007820154815250509050919050565b600e6020528060005260406000206000915090505481565b600c602052816000526040600020818154811061203e57600080fd5b90600052602060002001600091509150505481565b600660205280600052604060002060009150905080600001549080600101805461207c90613138565b80601f01602080910402602001604051908101604052809291908181526020018280546120a890613138565b80156120f55780601f106120ca576101008083540402835291602001916120f5565b820191906000526020600020905b8154815290600101906020018083116120d857829003601f168201915b50505050509080600201805461210a90613138565b80601f016020809104026020016040519081016040528092919081815260200182805461213690613138565b80156121835780601f1061215857610100808354040283529160200191612183565b820191906000526020600020905b81548152906001019060200180831161216657829003601f168201915b50505050509080600301805461219890613138565b80601f01602080910402602001604051908101604052809291908181526020018280546121c490613138565b80156122115780601f106121e657610100808354040283529160200191612211565b820191906000526020600020905b8154815290600101906020018083116121f457829003601f168201915b5050505050908060040160009054906101000a900473ffffffffffffffffffffffffffffffffffffffff16908060050154908060060160009054906101000a900460ff169080600701805461226590613138565b80601f016020809104026020016040519081016040528092919081815260200182805461229190613138565b80156122de5780601f106122b3576101008083540402835291602001916122de565b820191906000526020600020905b8154815290600101906020018083116122c157829003601f168201915b5050505050905088565b828054828255906000526020600020908101928215612324579160200282015b82811115612323578251825591602001919060010190612308565b5b50905061233191906123e0565b5090565b60405180610100016040528060008152602001600073ffffffffffffffffffffffffffffffffffffffff16815260200160608152602001606081526020016000151581526020016060815260200160008152602001600081525090565b6040518060c0016040528060008152602001600073ffffffffffffffffffffffffffffffffffffffff1681526020016060815260200160001515815260200160008152602001600081525090565b5b808211156123f95760008160009055506001016123e1565b5090565b6000819050919050565b612410816123fd565b82525050565b600060208201905061242b6000830184612407565b92915050565b6000604051905090565b600080fd5b600080fd5b61244e816123fd565b811461245957600080fd5b50565b60008135905061246b81612445565b92915050565b6000602082840312156124875761248661243b565b5b60006124958482850161245c565b91505092915050565b600073ffffffffffffffffffffffffffffffffffffffff82169050919050565b60006124c98261249e565b9050919050565b6124d9816124be565b82525050565b600081519050919050565b600082825260208201905092915050565b60005b838110156125195780820151818401526020810190506124fe565b60008484015250505050565b6000601f19601f8301169050919050565b6000612541826124df565b61254b81856124ea565b935061255b8185602086016124fb565b61256481612525565b840191505092915050565b60008115159050919050565b6125848161256f565b82525050565b600060c08201905061259f6000830189612407565b6125ac60208301886124d0565b81810360408301526125be8187612536565b90506125cd606083018661257b565b6125da6080830185612407565b6125e760a0830184612407565b979650505050505050565b600060e082019050612607600083018a612407565b61261460208301896124d0565b81810360408301526126268188612536565b9050818103606083015261263a8187612536565b9050612649608083018661257b565b61265660a0830185612407565b61266360c0830184612407565b98975050505050505050565b600080fd5b600080fd5b7f4e487b7100000000000000000000000000000000000000000000000000000000600052604160045260246000fd5b6126b182612525565b810181811067ffffffffffffffff821117156126d0576126cf612679565b5b80604052505050565b60006126e3612431565b90506126ef82826126a8565b919050565b600067ffffffffffffffff82111561270f5761270e612679565b5b61271882612525565b9050602081019050919050565b82818337600083830152505050565b6000612747612742846126f4565b6126d9565b90508281526020810184848401111561276357612762612674565b5b61276e848285612725565b509392505050565b600082601f83011261278b5761278a61266f565b5b813561279b848260208601612734565b91505092915050565b600080604083850312156127bb576127ba61243b565b5b600083013567ffffffffffffffff8111156127d9576127d8612440565b5b6127e585828601612776565b92505060206127f68582860161245c565b9150509250929050565b612809816124be565b811461281457600080fd5b50565b60008135905061282681612800565b92915050565b600080600080600080600080610100898b03121561284d5761284c61243b565b5b600061285b8b828c0161245c565b985050602089013567ffffffffffffffff81111561287c5761287b612440565b5b6128888b828c01612776565b97505060406128998b828c0161245c565b965050606089013567ffffffffffffffff8111156128ba576128b9612440565b5b6128c68b828c01612776565b95505060806128d78b828c01612817565b94505060a089013567ffffffffffffffff8111156128f8576128f7612440565b5b6129048b828c01612776565b93505060c06129158b828c0161245c565b92505060e089013567ffffffffffffffff81111561293657612935612440565b5b6129428b828c01612776565b9150509295985092959890939650565b600080600080600060a0868803121561296e5761296d61243b565b5b600061297c8882890161245c565b955050602086013567ffffffffffffffff81111561299d5761299c612440565b5b6129a988828901612776565b945050604086013567ffffffffffffffff8111156129ca576129c9612440565b5b6129d688828901612776565b93505060606129e788828901612817565b925050608086013567ffffffffffffffff811115612a0857612a07612440565b5b612a1488828901612776565b9150509295509295909350565b60008060408385031215612a3857612a3761243b565b5b6000612a4685828601612817565b9250506020612a578582860161245c565b9150509250929050565b6000612a6c8261249e565b9050919050565b612a7c81612a61565b82525050565b6000602082019050612a976000830184612a73565b92915050565b60008060408385031215612ab457612ab361243b565b5b600083013567ffffffffffffffff811115612ad257612ad1612440565b5b612ade85828601612776565b925050602083013567ffffffffffffffff811115612aff57612afe612440565b5b612b0b85828601612776565b9150509250929050565b600060208284031215612b2b57612b2a61243b565b5b6000612b3984828501612817565b91505092915050565b600081519050919050565b600082825260208201905092915050565b6000819050602082019050919050565b612b77816123fd565b82525050565b612b86816124be565b82525050565b600082825260208201905092915050565b6000612ba8826124df565b612bb28185612b8c565b9350612bc28185602086016124fb565b612bcb81612525565b840191505092915050565b612bdf8161256f565b82525050565b600081519050919050565b600082825260208201905092915050565b6000819050602082019050919050565b6000612c1d8383612b6e565b60208301905092915050565b6000602082019050919050565b6000612c4182612be5565b612c4b8185612bf0565b9350612c5683612c01565b8060005b83811015612c87578151612c6e8882612c11565b9750612c7983612c29565b925050600181019050612c5a565b5085935050505092915050565b600061010083016000830151612cad6000860182612b6e565b506020830151612cc06020860182612b7d565b5060408301518482036040860152612cd88282612b9d565b91505060608301518482036060860152612cf28282612b9d565b9150506080830151612d076080860182612bd6565b5060a083015184820360a0860152612d1f8282612c36565b91505060c0830151612d3460c0860182612b6e565b5060e0830151612d4760e0860182612b6e565b508091505092915050565b6000612d5e8383612c94565b905092915050565b6000602082019050919050565b6000612d7e82612b42565b612d888185612b4d565b935083602082028501612d9a85612b5e565b8060005b85811015612dd65784840389528151612db78582612d52565b9450612dc283612d66565b925060208a01995050600181019050612d9e565b50829750879550505050505092915050565b60006020820190508181036000830152612e028184612d73565b905092915050565b60008060408385031215612e2157612e2061243b565b5b6000612e2f8582860161245c565b9250506020612e408582860161245c565b9150509250929050565b600061010082019050612e60600083018b612407565b8181036020830152612e72818a612536565b9050612e816040830189612407565b8181036060830152612e938188612536565b9050612ea260808301876124d0565b81810360a0830152612eb48186612536565b9050612ec360c0830185612407565b81810360e0830152612ed58184612536565b90509998505050505050505050565b600060c083016000830151612efc6000860182612b6e565b506020830151612f0f6020860182612b7d565b5060408301518482036040860152612f278282612b9d565b9150506060830151612f3c6060860182612bd6565b506080830151612f4f6080860182612b6e565b5060a0830151612f6260a0860182612b6e565b508091505092915050565b60006020820190508181036000830152612f878184612ee4565b905092915050565b600061010083016000830151612fa86000860182612b6e565b506020830151612fbb6020860182612b7d565b5060408301518482036040860152612fd38282612b9d565b91505060608301518482036060860152612fed8282612b9d565b91505060808301516130026080860182612bd6565b5060a083015184820360a086015261301a8282612c36565b91505060c083015161302f60c0860182612b6e565b5060e083015161304260e0860182612b6e565b508091505092915050565b600060208201905081810360008301526130678184612f8f565b905092915050565b600061010082019050613085600083018b612407565b8181036020830152613097818a612536565b905081810360408301526130ab8189612536565b905081810360608301526130bf8188612536565b90506130ce60808301876124d0565b6130db60a0830186612407565b6130e860c083018561257b565b81810360e08301526130fa8184612536565b90509998505050505050505050565b7f4e487b7100000000000000000000000000000000000000000000000000000000600052602260045260246000fd5b6000600282049050600182168061315057607f821691505b60208210810361316357613162613109565b5b50919050565b7f4e487b7100000000000000000000000000000000000000000000000000000000600052601160045260246000fd5b60006131a3826123fd565b91507fffffffffffffffffffffffffffffffffffffffffffffffffffffffffffffffff82036131d5576131d4613169565b5b600182019050919050565b60008190508160005260206000209050919050565b60006020601f8301049050919050565b600082821b905092915050565b6000600883026132427fffffffffffffffffffffffffffffffffffffffffffffffffffffffffffffffff82613205565b61324c8683613205565b95508019841693508086168417925050509392505050565b6000819050919050565b600061328961328461327f846123fd565b613264565b6123fd565b9050919050565b6000819050919050565b6132a38361326e565b6132b76132af82613290565b848454613212565b825550505050565b600090565b6132cc6132bf565b6132d781848461329a565b505050565b5b818110156132fb576132f06000826132c4565b6001810190506132dd565b5050565b601f82111561334057613311816131e0565b61331a846131f5565b81016020851015613329578190505b61333d613335856131f5565b8301826132dc565b50505b505050565b600082821c905092915050565b600061336360001984600802613345565b1980831691505092915050565b600061337c8383613352565b9150826002028217905092915050565b613395826124df565b67ffffffffffffffff8111156133ae576133ad612679565b5b6133b88254613138565b6133c38282856132ff565b600060209050601f8311600181146133f657600084156133e4578287015190505b6133ee8582613370565b865550613456565b601f198416613404866131e0565b60005b8281101561342c57848901518255600182019150602085019450602081019050613407565b868310156134495784890151613445601f891682613352565b8355505b6001600288020188555050505b505050505050565b7f4e487b7100000000000000000000000000000000000000000000000000000000600052603260045260246000fd5b6000613498826123fd565b91506134a3836123fd565b92508282039050818111156134bb576134ba613169565b5b92915050565b60006134cc826123fd565b91506134d7836123fd565b92508282019050808211156134ef576134ee613169565b5b92915050565b7f4e487b7100000000000000000000000000000000000000000000000000000000600052601260045260246000fd5b600061352f826123fd565b915061353a836123fd565b92508261354a576135496134f5565b5b828204905092915050565b6000613560826123fd565b915061356b836123fd565b9250828202613579816123fd565b915082820484148315176135905761358f613169565b5b509291505056fea2646970667358221220e66fea48ba9abc81f9c3b75c243e7e2332682fe505a34297060bd1886cda373e64736f6c63430008110033",
  "linkReferences": {},
  "deployedLinkReferences": {}
}