{
  "_format": "hh-sol-artifact-1",
  "contractName": "TofuToken",
  "sourceName": "contracts/TofuToken.sol",
  "abi": [
    {
      "inputs": [
        {
          "internalType": "uint256",
          "name": "cap",
          "type": "uint256"
        },
        {
          "internalType": "uint256",
          "name": "_reward",
          "type": "uint256"
        }
      ],
      "stateMutability": "nonpayable",
      "type": "constructor"
    },
    {
      "anonymous": false,
      "inputs": [
        {
          "indexed": true,
          "internalType": "address",
          "name": "owner",
          "type": "address"
        },
        {
          "indexed": true,
          "internalType": "address",
          "name": "spender",
          "type": "address"
        },
        {
          "indexed": false,
          "internalType": "uint256",
          "name": "value",
          "type": "uint256"
        }
      ],
      "name": "Approval",
      "type": "event"
    },
    {
      "anonymous": false,
      "inputs": [
        {
          "indexed": true,
          "internalType": "address",
          "name": "from",
          "type": "address"
        },
        {
          "indexed": true,
          "internalType": "address",
          "name": "to",
          "type": "address"
        },
        {
          "indexed": false,
          "internalType": "uint256",
          "name": "value",
          "type": "uint256"
        }
      ],
      "name": "Transfer",
      "type": "event"
    },
    {
      "inputs": [
        {
          "internalType": "address",
          "name": "owner",
          "type": "address"
        },
        {
          "internalType": "address",
          "name": "spender",
          "type": "address"
        }
      ],
      "name": "allowance",
      "outputs": [
        {
          "internalType": "uint256",
          "name": "",
          "type": "uint256"
        }
      ],
      "stateMutability": "view",
      "type": "function"
    },
    {
      "inputs": [
        {
          "internalType": "address",
          "name": "spender",
          "type": "address"
        },
        {
          "internalType": "uint256",
          "name": "amount",
          "type": "uint256"
        }
      ],
      "name": "approve",
      "outputs": [
        {
          "internalType": "bool",
          "name": "",
          "type": "bool"
        }
      ],
      "stateMutability": "nonpayable",
      "type": "function"
    },
    {
      "inputs": [
        {
          "internalType": "address",
          "name": "account",
          "type": "address"
        }
      ],
      "name": "balanceOf",
      "outputs": [
        {
          "internalType": "uint256",
          "name": "",
          "type": "uint256"
        }
      ],
      "stateMutability": "view",
      "type": "function"
    },
    {
      "inputs": [],
      "name": "blockReward",
      "outputs": [
        {
          "internalType": "uint256",
          "name": "",
          "type": "uint256"
        }
      ],
      "stateMutability": "view",
      "type": "function"
    },
    {
      "inputs": [
        {
          "internalType": "uint256",
          "name": "amount",
          "type": "uint256"
        }
      ],
      "name": "burn",
      "outputs": [],
      "stateMutability": "nonpayable",
      "type": "function"
    },
    {
      "inputs": [
        {
          "internalType": "address",
          "name": "account",
          "type": "address"
        },
        {
          "internalType": "uint256",
          "name": "amount",
          "type": "uint256"
        }
      ],
      "name": "burnFrom",
      "outputs": [],
      "stateMutability": "nonpayable",
      "type": "function"
    },
    {
      "inputs": [],
      "name": "cap",
      "outputs": [
        {
          "internalType": "uint256",
          "name": "",
          "type": "uint256"
        }
      ],
      "stateMutability": "view",
      "type": "function"
    },
    {
      "inputs": [],
      "name": "decimals",
      "outputs": [
        {
          "internalType": "uint8",
          "name": "",
          "type": "uint8"
        }
      ],
      "stateMutability": "view",
      "type": "function"
    },
    {
      "inputs": [
        {
          "internalType": "address",
          "name": "spender",
          "type": "address"
        },
        {
          "internalType": "uint256",
          "name": "subtractedValue",
          "type": "uint256"
        }
      ],
      "name": "decreaseAllowance",
      "outputs": [
        {
          "internalType": "bool",
          "name": "",
          "type": "bool"
        }
      ],
      "stateMutability": "nonpayable",
      "type": "function"
    },
    {
      "inputs": [
        {
          "internalType": "address",
          "name": "spender",
          "type": "address"
        },
        {
          "internalType": "uint256",
          "name": "addedValue",
          "type": "uint256"
        }
      ],
      "name": "increaseAllowance",
      "outputs": [
        {
          "internalType": "bool",
          "name": "",
          "type": "bool"
        }
      ],
      "stateMutability": "nonpayable",
      "type": "function"
    },
    {
      "inputs": [],
      "name": "name",
      "outputs": [
        {
          "internalType": "string",
          "name": "",
          "type": "string"
        }
      ],
      "stateMutability": "view",
      "type": "function"
    },
    {
      "inputs": [],
      "name": "owner",
      "outputs": [
        {
          "internalType": "address payable",
          "name": "",
          "type": "address"
        }
      ],
      "stateMutability": "view",
      "type": "function"
    },
    {
      "inputs": [
        {
          "internalType": "address",
          "name": "_metaAddress",
          "type": "address"
        },
        {
          "internalType": "uint256",
          "name": "_ammount",
          "type": "uint256"
        }
      ],
      "name": "reward",
      "outputs": [],
      "stateMutability": "nonpayable",
      "type": "function"
    },
    {
      "inputs": [
        {
          "internalType": "uint256",
          "name": "_reward",
          "type": "uint256"
        }
      ],
      "name": "setBlockReward",
      "outputs": [],
      "stateMutability": "nonpayable",
      "type": "function"
    },
    {
      "inputs": [],
      "name": "symbol",
      "outputs": [
        {
          "internalType": "string",
          "name": "",
          "type": "string"
        }
      ],
      "stateMutability": "view",
      "type": "function"
    },
    {
      "inputs": [],
      "name": "totalSupply",
      "outputs": [
        {
          "internalType": "uint256",
          "name": "",
          "type": "uint256"
        }
      ],
      "stateMutability": "view",
      "type": "function"
    },
    {
      "inputs": [
        {
          "internalType": "address",
          "name": "to",
          "type": "address"
        },
        {
          "internalType": "uint256",
          "name": "amount",
          "type": "uint256"
        }
      ],
      "name": "transfer",
      "outputs": [
        {
          "internalType": "bool",
          "name": "",
          "type": "bool"
        }
      ],
      "stateMutability": "nonpayable",
      "type": "function"
    },
    {
      "inputs": [
        {
          "internalType": "address",
          "name": "from",
          "type": "address"
        },
        {
          "internalType": "address",
          "name": "to",
          "type": "address"
        },
        {
          "internalType": "uint256",
          "name": "amount",
          "type": "uint256"
        }
      ],
      "name": "transferFrom",
      "outputs": [
        {
          "internalType": "bool",
          "name": "",
          "type": "bool"
        }
      ],
      "stateMutability": "nonpayable",
      "type": "function"
    }
  ],
  "bytecode": "0x60a06040523480156200001157600080fd5b5060405162002b9838038062002b9883398181016040528101906200003791906200058c565b620000476200021e60201b60201c565b600a62000055919062000763565b82620000629190620007b4565b6040518060400160405280600981526020017f546f6675546f6b656e00000000000000000000000000000000000000000000008152506040518060400160405280600381526020017f544f4600000000000000000000000000000000000000000000000000000000008152508160039081620000df919062000a6f565b508060049081620000f1919062000a6f565b505050600081116200013a576040517f08c379a0000000000000000000000000000000000000000000000000000000008152600401620001319062000bb7565b60405180910390fd5b80608081815250505033600560006101000a81548173ffffffffffffffffffffffffffffffffffffffff021916908373ffffffffffffffffffffffffffffffffffffffff160217905550620001e5600560009054906101000a900473ffffffffffffffffffffffffffffffffffffffff16620001bb6200021e60201b60201c565b600a620001c9919062000763565b626acfc0620001d99190620007b4565b6200022760201b60201c565b620001f56200021e60201b60201c565b600a62000203919062000763565b81620002109190620007b4565b600681905550505062000d26565b60006012905090565b6200023e82826200024260201b620008cc1760201c565b5050565b62000252620002d360201b60201c565b8162000268620002dd60201b620004681760201c565b62000274919062000bd9565b1115620002b8576040517f08c379a0000000000000000000000000000000000000000000000000000000008152600401620002af9062000c64565b60405180910390fd5b620002cf8282620002e760201b620009361760201c565b5050565b6000608051905090565b6000600254905090565b600073ffffffffffffffffffffffffffffffffffffffff168273ffffffffffffffffffffffffffffffffffffffff160362000359576040517f08c379a0000000000000000000000000000000000000000000000000000000008152600401620003509062000cd6565b60405180910390fd5b6200036d600083836200045460201b60201c565b806002600082825462000381919062000bd9565b92505081905550806000808473ffffffffffffffffffffffffffffffffffffffff1673ffffffffffffffffffffffffffffffffffffffff168152602001908152602001600020600082825401925050819055508173ffffffffffffffffffffffffffffffffffffffff16600073ffffffffffffffffffffffffffffffffffffffff167fddf252ad1be2c89b69c2b068fc378daa952ba7f163c4a11628f55a4df523b3ef8360405162000434919062000d09565b60405180910390a362000450600083836200052c60201b60201c565b5050565b600073ffffffffffffffffffffffffffffffffffffffff168373ffffffffffffffffffffffffffffffffffffffff1614158015620004be57504173ffffffffffffffffffffffffffffffffffffffff168273ffffffffffffffffffffffffffffffffffffffff1614155b8015620004f85750600073ffffffffffffffffffffffffffffffffffffffff164173ffffffffffffffffffffffffffffffffffffffff1614155b156200050f576200050e6200053160201b60201c565b5b620005278383836200054760201b62000a8c1760201c565b505050565b505050565b62000545416006546200022760201b60201c565b565b505050565b600080fd5b6000819050919050565b620005668162000551565b81146200057257600080fd5b50565b60008151905062000586816200055b565b92915050565b60008060408385031215620005a657620005a56200054c565b5b6000620005b68582860162000575565b9250506020620005c98582860162000575565b9150509250929050565b7f4e487b7100000000000000000000000000000000000000000000000000000000600052601160045260246000fd5b60008160011c9050919050565b6000808291508390505b60018511156200066157808604811115620006395762000638620005d3565b5b6001851615620006495780820291505b8081029050620006598562000602565b945062000619565b94509492505050565b6000826200067c57600190506200074f565b816200068c57600090506200074f565b8160018114620006a55760028114620006b057620006e6565b60019150506200074f565b60ff841115620006c557620006c4620005d3565b5b8360020a915084821115620006df57620006de620005d3565b5b506200074f565b5060208310610133831016604e8410600b8410161715620007205782820a9050838111156200071a5762000719620005d3565b5b6200074f565b6200072f84848460016200060f565b92509050818404811115620007495762000748620005d3565b5b81810290505b9392505050565b600060ff82169050919050565b6000620007708262000551565b91506200077d8362000756565b9250620007ac7fffffffffffffffffffffffffffffffffffffffffffffffffffffffffffffffff84846200066a565b905092915050565b6000620007c18262000551565b9150620007ce8362000551565b9250828202620007de8162000551565b91508282048414831517620007f857620007f7620005d3565b5b5092915050565b600081519050919050565b7f4e487b7100000000000000000000000000000000000000000000000000000000600052604160045260246000fd5b7f4e487b7100000000000000000000000000000000000000000000000000000000600052602260045260246000fd5b600060028204905060018216806200088157607f821691505b60208210810362000897576200089662000839565b5b50919050565b60008190508160005260206000209050919050565b60006020601f8301049050919050565b600082821b905092915050565b600060088302620009017fffffffffffffffffffffffffffffffffffffffffffffffffffffffffffffffff82620008c2565b6200090d8683620008c2565b95508019841693508086168417925050509392505050565b6000819050919050565b6000620009506200094a620009448462000551565b62000925565b62000551565b9050919050565b6000819050919050565b6200096c836200092f565b620009846200097b8262000957565b848454620008cf565b825550505050565b600090565b6200099b6200098c565b620009a881848462000961565b505050565b5b81811015620009d057620009c460008262000991565b600181019050620009ae565b5050565b601f82111562000a1f57620009e9816200089d565b620009f484620008b2565b8101602085101562000a04578190505b62000a1c62000a1385620008b2565b830182620009ad565b50505b505050565b600082821c905092915050565b600062000a446000198460080262000a24565b1980831691505092915050565b600062000a5f838362000a31565b9150826002028217905092915050565b62000a7a82620007ff565b67ffffffffffffffff81111562000a965762000a956200080a565b5b62000aa2825462000868565b62000aaf828285620009d4565b600060209050601f83116001811462000ae7576000841562000ad2578287015190505b62000ade858262000a51565b86555062000b4e565b601f19841662000af7866200089d565b60005b8281101562000b215784890151825560018201915060208501945060208101905062000afa565b8683101562000b41578489015162000b3d601f89168262000a31565b8355505b6001600288020188555050505b505050505050565b600082825260208201905092915050565b7f45524332304361707065643a2063617020697320300000000000000000000000600082015250565b600062000b9f60158362000b56565b915062000bac8262000b67565b602082019050919050565b6000602082019050818103600083015262000bd28162000b90565b9050919050565b600062000be68262000551565b915062000bf38362000551565b925082820190508082111562000c0e5762000c0d620005d3565b5b92915050565b7f45524332304361707065643a2063617020657863656564656400000000000000600082015250565b600062000c4c60198362000b56565b915062000c598262000c14565b602082019050919050565b6000602082019050818103600083015262000c7f8162000c3d565b9050919050565b7f45524332303a206d696e7420746f20746865207a65726f206164647265737300600082015250565b600062000cbe601f8362000b56565b915062000ccb8262000c86565b602082019050919050565b6000602082019050818103600083015262000cf18162000caf565b9050919050565b62000d038162000551565b82525050565b600060208201905062000d20600083018462000cf8565b92915050565b608051611e5662000d42600039600061061c0152611e566000f3fe608060405234801561001057600080fd5b50600436106101165760003560e01c806339509351116100a25780638da5cb5b116100715780638da5cb5b146102e157806395d89b41146102ff578063a457c2d71461031d578063a9059cbb1461034d578063dd62ed3e1461037d57610116565b8063395093511461024957806342966c681461027957806370a082311461029557806379cc6790146102c557610116565b80631a18e707116100e95780631a18e707146101a557806321670f22146101c157806323b872dd146101dd578063313ce5671461020d578063355274ea1461022b57610116565b806306fdde031461011b578063095ea7b3146101395780630ac168a11461016957806318160ddd14610187575b600080fd5b6101236103ad565b60405161013091906112a2565b60405180910390f35b610153600480360381019061014e919061135d565b61043f565b60405161016091906113b8565b60405180910390f35b610171610462565b60405161017e91906113e2565b60405180910390f35b61018f610468565b60405161019c91906113e2565b60405180910390f35b6101bf60048036038101906101ba91906113fd565b610472565b005b6101db60048036038101906101d6919061135d565b61052a565b005b6101f760048036038101906101f2919061142a565b6105e0565b60405161020491906113b8565b60405180910390f35b61021561060f565b6040516102229190611499565b60405180910390f35b610233610618565b60405161024091906113e2565b60405180910390f35b610263600480360381019061025e919061135d565b610640565b60405161027091906113b8565b60405180910390f35b610293600480360381019061028e91906113fd565b610677565b005b6102af60048036038101906102aa91906114b4565b61068b565b6040516102bc91906113e2565b60405180910390f35b6102df60048036038101906102da919061135d565b6106d3565b005b6102e96106f3565b6040516102f69190611502565b60405180910390f35b610307610719565b60405161031491906112a2565b60405180910390f35b6103376004803603810190610332919061135d565b6107ab565b60405161034491906113b8565b60405180910390f35b6103676004803603810190610362919061135d565b610822565b60405161037491906113b8565b60405180910390f35b6103976004803603810190610392919061151d565b610845565b6040516103a491906113e2565b60405180910390f35b6060600380546103bc9061158c565b80601f01602080910402602001604051908101604052809291908181526020018280546103e89061158c565b80156104355780601f1061040a57610100808354040283529160200191610435565b820191906000526020600020905b81548152906001019060200180831161041857829003601f168201915b5050505050905090565b60008061044a610a91565b9050610457818585610a99565b600191505092915050565b60065481565b6000600254905090565b600560009054906101000a900473ffffffffffffffffffffffffffffffffffffffff1673ffffffffffffffffffffffffffffffffffffffff163373ffffffffffffffffffffffffffffffffffffffff1614610502576040517f08c379a00000000000000000000000000000000000000000000000000000000081526004016104f990611609565b60405180910390fd5b61050a61060f565b600a610516919061178b565b8161052191906117d6565b60068190555050565b600073ffffffffffffffffffffffffffffffffffffffff168273ffffffffffffffffffffffffffffffffffffffff161415801561059357504173ffffffffffffffffffffffffffffffffffffffff168273ffffffffffffffffffffffffffffffffffffffff1614155b80156105cc5750600073ffffffffffffffffffffffffffffffffffffffff164173ffffffffffffffffffffffffffffffffffffffff1614155b156105dc576105db8282610c62565b5b5050565b6000806105eb610a91565b90506105f8858285610c70565b610603858585610cfc565b60019150509392505050565b60006012905090565b60007f0000000000000000000000000000000000000000000000000000000000000000905090565b60008061064b610a91565b905061066c81858561065d8589610845565b6106679190611818565b610a99565b600191505092915050565b610688610682610a91565b82610f72565b50565b60008060008373ffffffffffffffffffffffffffffffffffffffff1673ffffffffffffffffffffffffffffffffffffffff168152602001908152602001600020549050919050565b6106e5826106df610a91565b83610c70565b6106ef8282610f72565b5050565b600560009054906101000a900473ffffffffffffffffffffffffffffffffffffffff1681565b6060600480546107289061158c565b80601f01602080910402602001604051908101604052809291908181526020018280546107549061158c565b80156107a15780601f10610776576101008083540402835291602001916107a1565b820191906000526020600020905b81548152906001019060200180831161078457829003601f168201915b5050505050905090565b6000806107b6610a91565b905060006107c48286610845565b905083811015610809576040517f08c379a0000000000000000000000000000000000000000000000000000000008152600401610800906118be565b60405180910390fd5b6108168286868403610a99565b60019250505092915050565b60008061082d610a91565b905061083a818585610cfc565b600191505092915050565b6000600160008473ffffffffffffffffffffffffffffffffffffffff1673ffffffffffffffffffffffffffffffffffffffff16815260200190815260200160002060008373ffffffffffffffffffffffffffffffffffffffff1673ffffffffffffffffffffffffffffffffffffffff16815260200190815260200160002054905092915050565b6108d4610618565b816108dd610468565b6108e79190611818565b1115610928576040517f08c379a000000000000000000000000000000000000000000000000000000000815260040161091f9061192a565b60405180910390fd5b6109328282610936565b5050565b600073ffffffffffffffffffffffffffffffffffffffff168273ffffffffffffffffffffffffffffffffffffffff16036109a5576040517f08c379a000000000000000000000000000000000000000000000000000000000815260040161099c90611996565b60405180910390fd5b6109b16000838361113f565b80600260008282546109c39190611818565b92505081905550806000808473ffffffffffffffffffffffffffffffffffffffff1673ffffffffffffffffffffffffffffffffffffffff168152602001908152602001600020600082825401925050819055508173ffffffffffffffffffffffffffffffffffffffff16600073ffffffffffffffffffffffffffffffffffffffff167fddf252ad1be2c89b69c2b068fc378daa952ba7f163c4a11628f55a4df523b3ef83604051610a7491906113e2565b60405180910390a3610a88600083836111ff565b5050565b505050565b600033905090565b600073ffffffffffffffffffffffffffffffffffffffff168373ffffffffffffffffffffffffffffffffffffffff1603610b08576040517f08c379a0000000000000000000000000000000000000000000000000000000008152600401610aff90611a28565b60405180910390fd5b600073ffffffffffffffffffffffffffffffffffffffff168273ffffffffffffffffffffffffffffffffffffffff1603610b77576040517f08c379a0000000000000000000000000000000000000000000000000000000008152600401610b6e90611aba565b60405180910390fd5b80600160008573ffffffffffffffffffffffffffffffffffffffff1673ffffffffffffffffffffffffffffffffffffffff16815260200190815260200160002060008473ffffffffffffffffffffffffffffffffffffffff1673ffffffffffffffffffffffffffffffffffffffff168152602001908152602001600020819055508173ffffffffffffffffffffffffffffffffffffffff168373ffffffffffffffffffffffffffffffffffffffff167f8c5be1e5ebec7d5bd14f71427d1e84f3dd0314c0f7b2291e5b200ac8c7c3b92583604051610c5591906113e2565b60405180910390a3505050565b610c6c82826108cc565b5050565b6000610c7c8484610845565b90507fffffffffffffffffffffffffffffffffffffffffffffffffffffffffffffffff8114610cf65781811015610ce8576040517f08c379a0000000000000000000000000000000000000000000000000000000008152600401610cdf90611b26565b60405180910390fd5b610cf58484848403610a99565b5b50505050565b600073ffffffffffffffffffffffffffffffffffffffff168373ffffffffffffffffffffffffffffffffffffffff1603610d6b576040517f08c379a0000000000000000000000000000000000000000000000000000000008152600401610d6290611bb8565b60405180910390fd5b600073ffffffffffffffffffffffffffffffffffffffff168273ffffffffffffffffffffffffffffffffffffffff1603610dda576040517f08c379a0000000000000000000000000000000000000000000000000000000008152600401610dd190611c4a565b60405180910390fd5b610de583838361113f565b60008060008573ffffffffffffffffffffffffffffffffffffffff1673ffffffffffffffffffffffffffffffffffffffff16815260200190815260200160002054905081811015610e6b576040517f08c379a0000000000000000000000000000000000000000000000000000000008152600401610e6290611cdc565b60405180910390fd5b8181036000808673ffffffffffffffffffffffffffffffffffffffff1673ffffffffffffffffffffffffffffffffffffffff16815260200190815260200160002081905550816000808573ffffffffffffffffffffffffffffffffffffffff1673ffffffffffffffffffffffffffffffffffffffff168152602001908152602001600020600082825401925050819055508273ffffffffffffffffffffffffffffffffffffffff168473ffffffffffffffffffffffffffffffffffffffff167fddf252ad1be2c89b69c2b068fc378daa952ba7f163c4a11628f55a4df523b3ef84604051610f5991906113e2565b60405180910390a3610f6c8484846111ff565b50505050565b600073ffffffffffffffffffffffffffffffffffffffff168273ffffffffffffffffffffffffffffffffffffffff1603610fe1576040517f08c379a0000000000000000000000000000000000000000000000000000000008152600401610fd890611d6e565b60405180910390fd5b610fed8260008361113f565b60008060008473ffffffffffffffffffffffffffffffffffffffff1673ffffffffffffffffffffffffffffffffffffffff16815260200190815260200160002054905081811015611073576040517f08c379a000000000000000000000000000000000000000000000000000000000815260040161106a90611e00565b60405180910390fd5b8181036000808573ffffffffffffffffffffffffffffffffffffffff1673ffffffffffffffffffffffffffffffffffffffff1681526020019081526020016000208190555081600260008282540392505081905550600073ffffffffffffffffffffffffffffffffffffffff168373ffffffffffffffffffffffffffffffffffffffff167fddf252ad1be2c89b69c2b068fc378daa952ba7f163c4a11628f55a4df523b3ef8460405161112691906113e2565b60405180910390a361113a836000846111ff565b505050565b600073ffffffffffffffffffffffffffffffffffffffff168373ffffffffffffffffffffffffffffffffffffffff16141580156111a857504173ffffffffffffffffffffffffffffffffffffffff168273ffffffffffffffffffffffffffffffffffffffff1614155b80156111e15750600073ffffffffffffffffffffffffffffffffffffffff164173ffffffffffffffffffffffffffffffffffffffff1614155b156111ef576111ee611204565b5b6111fa838383610a8c565b505050565b505050565b61121041600654610c62565b565b600081519050919050565b600082825260208201905092915050565b60005b8381101561124c578082015181840152602081019050611231565b60008484015250505050565b6000601f19601f8301169050919050565b600061127482611212565b61127e818561121d565b935061128e81856020860161122e565b61129781611258565b840191505092915050565b600060208201905081810360008301526112bc8184611269565b905092915050565b600080fd5b600073ffffffffffffffffffffffffffffffffffffffff82169050919050565b60006112f4826112c9565b9050919050565b611304816112e9565b811461130f57600080fd5b50565b600081359050611321816112fb565b92915050565b6000819050919050565b61133a81611327565b811461134557600080fd5b50565b60008135905061135781611331565b92915050565b60008060408385031215611374576113736112c4565b5b600061138285828601611312565b925050602061139385828601611348565b9150509250929050565b60008115159050919050565b6113b28161139d565b82525050565b60006020820190506113cd60008301846113a9565b92915050565b6113dc81611327565b82525050565b60006020820190506113f760008301846113d3565b92915050565b600060208284031215611413576114126112c4565b5b600061142184828501611348565b91505092915050565b600080600060608486031215611443576114426112c4565b5b600061145186828701611312565b935050602061146286828701611312565b925050604061147386828701611348565b9150509250925092565b600060ff82169050919050565b6114938161147d565b82525050565b60006020820190506114ae600083018461148a565b92915050565b6000602082840312156114ca576114c96112c4565b5b60006114d884828501611312565b91505092915050565b60006114ec826112c9565b9050919050565b6114fc816114e1565b82525050565b600060208201905061151760008301846114f3565b92915050565b60008060408385031215611534576115336112c4565b5b600061154285828601611312565b925050602061155385828601611312565b9150509250929050565b7f4e487b7100000000000000000000000000000000000000000000000000000000600052602260045260246000fd5b600060028204905060018216806115a457607f821691505b6020821081036115b7576115b661155d565b5b50919050565b7f5265717569726573206f776e65722070726576696c6167657300000000000000600082015250565b60006115f360198361121d565b91506115fe826115bd565b602082019050919050565b60006020820190508181036000830152611622816115e6565b9050919050565b7f4e487b7100000000000000000000000000000000000000000000000000000000600052601160045260246000fd5b60008160011c9050919050565b6000808291508390505b60018511156116af5780860481111561168b5761168a611629565b5b600185161561169a5780820291505b80810290506116a885611658565b945061166f565b94509492505050565b6000826116c85760019050611784565b816116d65760009050611784565b81600181146116ec57600281146116f657611725565b6001915050611784565b60ff84111561170857611707611629565b5b8360020a91508482111561171f5761171e611629565b5b50611784565b5060208310610133831016604e8410600b841016171561175a5782820a90508381111561175557611754611629565b5b611784565b6117678484846001611665565b9250905081840481111561177e5761177d611629565b5b81810290505b9392505050565b600061179682611327565b91506117a18361147d565b92506117ce7fffffffffffffffffffffffffffffffffffffffffffffffffffffffffffffffff84846116b8565b905092915050565b60006117e182611327565b91506117ec83611327565b92508282026117fa81611327565b9150828204841483151761181157611810611629565b5b5092915050565b600061182382611327565b915061182e83611327565b925082820190508082111561184657611845611629565b5b92915050565b7f45524332303a2064656372656173656420616c6c6f77616e63652062656c6f7760008201527f207a65726f000000000000000000000000000000000000000000000000000000602082015250565b60006118a860258361121d565b91506118b38261184c565b604082019050919050565b600060208201905081810360008301526118d78161189b565b9050919050565b7f45524332304361707065643a2063617020657863656564656400000000000000600082015250565b600061191460198361121d565b915061191f826118de565b602082019050919050565b6000602082019050818103600083015261194381611907565b9050919050565b7f45524332303a206d696e7420746f20746865207a65726f206164647265737300600082015250565b6000611980601f8361121d565b915061198b8261194a565b602082019050919050565b600060208201905081810360008301526119af81611973565b9050919050565b7f45524332303a20617070726f76652066726f6d20746865207a65726f2061646460008201527f7265737300000000000000000000000000000000000000000000000000000000602082015250565b6000611a1260248361121d565b9150611a1d826119b6565b604082019050919050565b60006020820190508181036000830152611a4181611a05565b9050919050565b7f45524332303a20617070726f766520746f20746865207a65726f20616464726560008201527f7373000000000000000000000000000000000000000000000000000000000000602082015250565b6000611aa460228361121d565b9150611aaf82611a48565b604082019050919050565b60006020820190508181036000830152611ad381611a97565b9050919050565b7f45524332303a20696e73756666696369656e7420616c6c6f77616e6365000000600082015250565b6000611b10601d8361121d565b9150611b1b82611ada565b602082019050919050565b60006020820190508181036000830152611b3f81611b03565b9050919050565b7f45524332303a207472616e736665722066726f6d20746865207a65726f20616460008201527f6472657373000000000000000000000000000000000000000000000000000000602082015250565b6000611ba260258361121d565b9150611bad82611b46565b604082019050919050565b60006020820190508181036000830152611bd181611b95565b9050919050565b7f45524332303a207472616e7366657220746f20746865207a65726f206164647260008201527f6573730000000000000000000000000000000000000000000000000000000000602082015250565b6000611c3460238361121d565b9150611c3f82611bd8565b604082019050919050565b60006020820190508181036000830152611c6381611c27565b9050919050565b7f45524332303a207472616e7366657220616d6f756e742065786365656473206260008201527f616c616e63650000000000000000000000000000000000000000000000000000602082015250565b6000611cc660268361121d565b9150611cd182611c6a565b604082019050919050565b60006020820190508181036000830152611cf581611cb9565b9050919050565b7f45524332303a206275726e2066726f6d20746865207a65726f2061646472657360008201527f7300000000000000000000000000000000000000000000000000000000000000602082015250565b6000611d5860218361121d565b9150611d6382611cfc565b604082019050919050565b60006020820190508181036000830152611d8781611d4b565b9050919050565b7f45524332303a206275726e20616d6f756e7420657863656564732062616c616e60008201527f6365000000000000000000000000000000000000000000000000000000000000602082015250565b6000611dea60228361121d565b9150611df582611d8e565b604082019050919050565b60006020820190508181036000830152611e1981611ddd565b905091905056fea2646970667358221220e1b20b7b83d938b9a94a875700e6716f171c1ff4aa1013c481f47ae4196b87a664736f6c63430008110033",
  "linkReferences": {},
  "deployedLinkReferences": {}
}